:020000040800F2
:100000003004002049010008ED050008B105000892
:10001000E90500083D040008890A00080000000006
:10002000000000000000000000000000A50700081C
:10003000950400080000000075060008B9080008D3
:100040006301000863010008630100086301000800
:1000500063010008630100086301000863010008F0
:1000600063010008630100086301000863010008E0
:1000700063010008630100086301000863010008D0
:100080006301000863010008910100086301000892
:1000900063010008630100086301000863010008B0
:1000A00063010008630100086301000863010008A0
:1000B0006301000863010008630100086301000890
:1000C0006301000863010008630100086301000880
:1000D0006301000863010008630100086301000870
:1000E0006301000863010008630100086301000860
:1000F0006301000863010008630100086301000850
:10010000630100086301000863010008630100083F
:10011000630100086301000863010008630100082F
:10012000630100086301000863010008630100081F
:10013000DFF810D000F01AF8004800473D0B000827
:10014000AFF300803004002006488047064800478F
:10015000FEE7FEE7FEE7FEE7FEE7FEE7FEE7FEE777
:10016000FEE7FEE7BD08000831010008064C074D18
:1001700006E0E06840F0010394E807009847103477
:10018000AC42F6D3FFF7D8FF600B0008800B0008E5
:1001900010B54FF40871054800F0AAF8012804D101
:1001A0004FF40871014800F089F810BD00240140A7
:1001B00000B593B001214FF4017000F079FA0121EC
:1001C000084600F065FA00208DF84B000A20ADF8D3
:1001D000480012A9354800F05EF912208DF804009D
:1001E00001208DF805008DF806008DF8070001A8A4
:1001F00000F0FEF902200590002004900C902C489D
:1002000003904FF480600990802007902948029065
:1002100080150890002006904FF400500B9020208D
:100220000A9002A9244800F017F90021224800F0A2
:1002300007F900200D9001208DF838008DF8390065
:100240004FF460200F900020109002208DF84400A1
:100250000DA918484C3800F05DF84FF4404000F00C
:100260000BFA05230122114612484C3800F07AF8A7
:100270000523022203210F484C3800F073F80121B6
:100280000C484C3800F01FF80A484C3800F0D1F800
:1002900000BF08484C3800F021F80028F9D10121AE
:1002A00004484C3800F0BAF813B000BD0008014013
:1002B000040000204C2401400800024000220A12E1
:1002C000D3430360704721B1826842F0010282602B
:1002D00003E0826822F0010282607047014600203C
:1002E0008A6802F004020AB1012000E00020704791
:1002F00070B502460020002300240B125568CEB2D0
:1003000005EA060415681D4015B10CB1012000E096
:10031000002070BD30B502460020002350680F4C0D
:1003200020400D790C6844EA052420435060906811
:100330000B4C2040D1E902542C434D7944EA45044A
:1003400020439060D06A20F470000C7C641EE4B2FC
:10035000234340EA0350D06230BD0000FFFEF0FFAF
:10036000FDF7F1FFF0B504460D4600200021092DF0
:1003700011DDE068A5F10A0606EB4607072606FA36
:1003800007F18843A5F10A0606EB460603FA06F1D3
:100390000843E0600CE0206905EB4507072606FAF4
:1003A00007F1884305EB450603FA06F1084320618F
:1003B000072A0FDA606B561E06EB86071F2606FA21
:1003C00007F18843561E06EB860605FA06F1084338
:1003D000606322E00D2A0FDA206BD61F06EB86073A
:1003E0001F2606FA07F18843D61F06EB860605FA94
:1003F00006F10843206310E0E06AA2F10D0606EB67
:1004000086071F2606FA07F18843A2F10D0606EBC0
:10041000860605FA06F10843E062F0BD21B1826864
:1004200042F4A002826003E0826822F4A0028260AB
:100430007047816841F004018160704700BFFEE7AA
:1004400021B1026842F00102026004E002684FF646
:10045000FE731A400260704710B50022026847F62A
:10046000F0739A430C6A8B6823430C6923434C69ED
:1004700023438C692343CC6923434C6A23438C6A0E
:1004800023431A430260CB6843600B6883604B6868
:10049000C36010BD70472DE9F041024600250026DB
:1004A000002000230024002791F803C00CF00F0562
:1004B00091F803C00CF0100CBCF1000F03D091F8C0
:1004C00002C04CEA050591F800C0BCF1000F31D024
:1004D000146800202BE04FF0010C0CFA00F3B1F887
:1004E00000C00CEA03069E4220D183004FF00F0C9F
:1004F0000CFA03F7BC4305FA03FC4CEA040491F838
:1005000003C0BCF1280F06D14FF0010C0CFA00FC1F
:10051000C2F814C00AE091F803C0BCF1480F05D13D
:100520004FF0010C0CFA00FCC2F810C0401C082867
:10053000D1D31460B1F800C0BCF1FF0F34DD5468B2
:1005400000202EE000F1080C4FF0010808FA0CF32F
:10055000B1F800C00CEA03069E4221D183004FF09F
:100560000F0C0CFA03F7BC4305FA03FC4CEA040435
:1005700091F803C0BCF1280F05D100F1080C08FA6E
:100580000CF8C2F8148091F803C0BCF1480F07D1F1
:1005900000F1080C4FF0010808FA0CF8C2F81080BE
:1005A000401C0828CED35460BDE8F081016170473B
:1005B00000BFFEE708B50121042000F079F8102003
:1005C0008DF803000420ADF8000003208DF8020030
:1005D00069460448FFF75FFF04210248FFF7E6FF82
:1005E00008BD00000008014000BFFEE770470000A2
:1005F00070B5002100230F22C47804B3154C246881
:1006000004F4E064C4F5E064210AC1F10403CA40C3
:10061000447804FA03F184781440214309010E4C14
:100620000678A155047804F01F050124AC40057834
:100630006D11AD0005F1E025C5F8004109E0047831
:1006400004F01F050124AC40044D0678761145F8EE
:10065000264070BD0CED00E000E400E080E100E029
:1006600002490143024A1160704700000000FA0588
:100670000CED00E07047000001460020034A50687E
:1006800020F44040084350607047000000100240D2
:1006900029B1064A52690243044B5A6104E0034AF5
:1006A00052698243014B5A617047000000100240BA
:1006B00029B1064A92690243044B9A6104E0034A55
:1006C00092698243014B9A6170470000001002401A
:1006D00030B500210022002400232D4D6D6805F067
:1006E0000C0121B1042905D0082923D105E0294DA9
:1006F000056022E0274D05601FE0254D6D6805F47B
:100700007012234D6D6805F48034022505EB92428A
:100710001CB9214D554305600BE01D4D6D6805F476
:1007200000351DB11C4D5543056002E0194D554380
:10073000056002E0174D056000BF00BF144D6D68F5
:1007400005F0F0010909154D6B5C0568DD40456059
:100750000F4D6D6805F4E061090A104D6B5C45684A
:10076000DD4085600A4D6D6805F46051C90A0B4D86
:100770006B5C4568DD40C560054D6D6805F4404122
:10078000890B074D6B5CC568B5FBF3F5056130BDA2
:100790000010024000127A0000093D001C000020F9
:1007A0002C000020704710B500F002F810BD0000CA
:1007B0000CB50020019000903348006840F4803070
:1007C0003149086000BF3048006800F400300090F4
:1007D0000198401C0190009818B90198B0F5A06FDD
:1007E000F1D12948006800F4003010B101200090D8
:1007F00001E0002000900098012843D123480068C0
:1008000040F01000214908600846006820F003000D
:1008100008600846006840F0020008601A48406816
:10082000194948600846406848600846406840F4F6
:10083000806048600846406820F47C1048600846A4
:10084000406840F4E81048600846006840F0807056
:10085000086000BF0C48006800F000700028F9D064
:100860000948406820F0030007494860084640688E
:1008700040F00200486000BF0348406800F00C00F0
:100880000828F9D10CBD00000010024000200240F1
:10089000042808D14FF0E021096941F004014FF02C
:1008A000E022116107E04FF0E021096921F0040125
:1008B0004FF0E022116170477047000010B51348F7
:1008C000006840F00100114908600846406810497E
:1008D00008400E494860084600680E4908400B4928
:1008E00008600846006820F48020086008464068D8
:1008F00020F4FE0048604FF41F008860FFF753FFAC
:100900004FF000600449086010BD00000010024074
:100910000000FFF8FFFFF6FE08ED00E000B585B02F
:10092000012144F20400FFF7C3FE4FF40070ADF85C
:10093000100018208DF8130003208DF8120004A970
:100940001348FFF7A8FD4FF48060ADF810000420B5
:100950008DF8130004A90E48FFF79DFD4FF41650C3
:1009600000900020ADF80400ADF80600ADF80800D6
:10097000ADF80C000C20ADF80A006946054800F0FF
:1009800017F80121034800F007F805B000BD00008A
:10099000000801400038014021B1828942F4005230
:1009A000828104E082894DF6FF731A40828170478C
:1009B0002DE9F04786B005460E460024A24600BF4A
:1009C000A1460027B08900B100BF2F462C8A4CF603
:1009D000FF700440F08804432C82AC894EF6F3107B
:1009E0000440B08831890843718908430443AC81CD
:1009F000AC8A4FF6FF400440B0890443AC8201A8A2
:100A0000FFF766FE1F48874202D1DDF810A001E023
:100A1000DDF80CA0A88900F4004040B10AEBCA0040
:100A200000EB0A1031684900B0FBF1F807E00AEB6F
:100A3000CA0000EB0A1031688900B0FBF1F86420AD
:100A4000B8FBF0F004012009642101FB1089A8899A
:100A500000F4004040B1322000EBC900B0FBF1F0DF
:100A600000F00700044308E0322000EB0910642185
:100A7000B0FBF1F000F00F0004432C8106B0BDE89C
:100A8000F08700000038014000BFFEE702E008C820
:100A9000121F08C1002AFAD170477047002001E0F8
:100AA00001C1121F002AFBD17047000010B56FF082
:100AB0000400FFF7EDFE0A4800680A49B0FBF1F0B8
:100AC000094908700846007800EB4001C1EBC010EE
:100AD0004FF6FF7101EAC0000449088010BD000014
:100AE0000800002000127A00000000200200002010
:100AF0000146114A12884A434FF0E0235A6100220E
:100B00009A611A46126942F001021A6100BF4FF061
:100B1000E022106900F001021AB100F48032002ACC
:100B2000F5D04FF0E022126922F001024FF0E023ED
:100B30001A6100229A617047020000204FF4C060E1
:100B4000FFF78EFDFFF7B2FFFFF734FDFFF7E6FE7C
:100B5000FFF72EFB03E04FF4FA60FFF7C9FFFAE757
:100B6000800B000800000020300000008C0A000804
:100B7000B00B000830000020000400009C0A0008B0
:100B8000000000000000000000A24A040000000075
:100B9000000000000102030406070809000000002D
:100BA00001020304010203040607080902040608FF
:0400000508000131BD
:00000001FF
