:020000040800F2
:10000000400400204901000839090008FD080008E3
:100010003509000889070008890D00080000000064
:10002000000000000000000000000000810A00083D
:10003000E10700080000000051090008950B0008C6
:100040006301000863010008630100086301000800
:1000500063010008630100086301000863010008F0
:1000600063010008630100086301000863010008E0
:1000700063010008630100086301000863010008D0
:1000800063010008630100086301000863010008C0
:1000900063010008630100086301000863010008B0
:1000A00063010008630100086301000863010008A0
:1000B0006301000863010008630100086301000890
:1000C0006301000863010008630100086301000880
:1000D0006301000863010008630100086301000870
:1000E0006301000863010008630100086301000860
:1000F0006301000863010008630100086301000850
:10010000630100086301000863010008630100083F
:10011000630100086301000863010008630100082F
:10012000630100086301000863010008630100081F
:10013000DFF810D000F0C4F900480047910E000825
:10014000AFF300804004002006488047064800477F
:10015000FEE7FEE7FEE7FEE7FEE7FEE7FEE7FEE777
:10016000FEE7FEE7990B0008310100082DE9FE4F7C
:1001700081EA030404F0004421F0004100944FF0B0
:10018000000B23F0004350EA01045ED052EA03045E
:100190005BD0C3F30A54C1F30A552C44A4F2F334E0
:1001A0000194A0FB0254C1F3130141F48011C3F385
:1001B000130343F4801301FB024400FB034E840A43
:1001C000970A44EA815447EA8357A4FB07680295DB
:1001D0008D0A05FB07854FEA932C04FB0C54270579
:1001E000029D4FEA065847EA1637B5EB08056EEB55
:1001F000070C870E920E47EA811742EA8312A7FB8B
:100200000201B6EB0B0164EB00042B0D43EA0C3347
:100210005E1844EB1C50DA465146E7FB0201C5F379
:1002200013044FEA0B3343EA14534FEA0432019CA0
:1002300043EA0603A4F10C040294009CCDE900B447
:1002400000F0EFF803B0BDE8F08F00200146F9E7B9
:100250002DE9F04D81EA030404F0004B21F0004544
:1002600014464FF0000A23F0004150EA050220D066
:1002700054EA01021DD0C5F30A570246C5F3130321
:10028000C1F31300C1F30A5640F4801543F4801300
:10029000A7EB0608101BD64608F2FD3873EB0500E5
:1002A00002D308F1010801E092185B41B8F1000F98
:1002B00003DA00200146BDE8F08D00204FF48011E4
:1002C000064684460EE0171B73EB050705D3121B89
:1002D00063EB050306434CEA010C49084FEA300082
:1002E00092185B4150EA0107EDD152EA030012D0A7
:1002F00082EA040083EA0501084305D0101BAB41E4
:1003000006D20122002306E000224FF0004302E063
:100310006FF0010253101AEB06004CEB085110EB82
:100320000A0041EB0B01BDE8F04D00F06BB89623DD
:100330000022114600F038B800F0004230F00040D2
:100340000AD0C10D01F56071C0F3160042EA0151F7
:10035000C20840071143704700200146704701F072
:10036000004330B421F0004150EA010206D00A0DEA
:10037000A2F56072C1F31301002A02DC30BC002038
:100380007047440F44EAC104C100E01830BC00EBE0
:10039000C250AFF300800029A8BF7047401C49003D
:1003A00008BF20F00100704710B4B0FA80FC00FADA
:1003B0000CF050EA010404BF10BC704749B1CCF105
:1003C000200421FA04F411FA0CF118BF0121214391
:1003D0000843A3EB0C01CB1D4FEA00614FEA10204C
:1003E00042BF002010BC704700EBC35010440029EE
:1003F000A4BF10BC7047401C490008BF20F001009A
:1004000010BC704710B5141E73F1000408DA401CCC
:1004100041F1000192185B411A4301D120F0010023
:1004200010BD2DE9F04D92469B4611B1B1FA81F213
:1004300002E0B0FA80F22032904600F053F8044611
:100440000F4640EA0A0041EA0B0153465A46084368
:1004500013D0114653EA010019D0C8F140025046AA
:1004600000F04FF805460E4650465946424600F009
:1004700039F8084305D0012004E020463946BDE89C
:10048000F08D0020054346EAE0762C4337430A9876
:100490006305E40AA0EB08000022FD0A44EA475481
:1004A0000A3002D500200146E9E70105101969412B
:1004B000DDE9084500196941BDE8F04DA2E70000FB
:1004C000064C074D06E0E06840F0010394E80700A1
:1004D00098471034AC42F6D3FFF72EFE640F0008A5
:1004E000840F0008202A04DB203A00FA02F10020E1
:1004F00070479140C2F1200320FA03F31943904062
:100500007047202A04DB203A21FA02F000217047CC
:1005100021FA02F3D040C2F120029140084319466B
:100520007047000000B591B001214FF4017000F058
:100530002DFA0121084600F019FA00208DF8430039
:100540000A20ADF8400010A9314800F04AF9022015
:100550000390002002900A902E4801904FF4806092
:100560000790802005902C48009080150690002070
:1005700004904FF4005009902020089069462748C5
:1005800000F010F90121254800F000F900200B903F
:1005900001208DF830008DF831004FF460200D906F
:1005A00000200E9002208DF83C000BA91A484C3810
:1005B00000F056F84FF4404000F0CCF9052301223A
:1005C000114615484C3800F073F805230222032128
:1005D00011484C3800F06CF801210F484C3800F0FD
:1005E0002AF801210C484C3800F01AF80A484C3817
:1005F00000F0C5F800BF08484C3800F027F8002884
:10060000F9D1012104484C3800F0AEF811B000BD1A
:10061000000801400C0000204C240140080002406A
:1006200021B1826842F00102826003E0826822F018
:1006300001028260704721B1826842F48072826058
:1006400003E0826822F480728260704701460020D5
:100650008A6802F004020AB1012000E0002070471D
:1006600030B502460020002350680F4C20400D7921
:100670000C6844EA05242043506090680B4C2040ED
:10068000D1E902542C434D7944EA4504204390605B
:10069000D06A20F470000C7C641EE4B2234340EA6C
:1006A0000350D06230BD0000FFFEF0FFFDF7F1FF08
:1006B000F0B504460D4600200021092D11DDE0684B
:1006C000A5F10A0606EB4607072606FA07F1884356
:1006D000A5F10A0606EB460603FA06F10843E060B8
:1006E0000CE0206905EB4507072606FA07F1884369
:1006F00005EB450603FA06F108432061072A0FDAE5
:10070000606B561E06EB86071F2606FA07F1884324
:10071000561E06EB860605FA06F10843606322E0E2
:100720000D2A0FDA206BD61F06EB86071F2606FA66
:1007300007F18843D61F06EB860605FA06F1084343
:10074000206310E0E06AA2F10D0606EB86071F2683
:1007500006FA07F18843A2F10D0606EB860605FAB4
:1007600006F10843E062F0BD21B1826842F4A002C4
:10077000826003E0826822F4A00282607047816890
:1007800041F004018160704700BFFEE721B10268BB
:1007900042F00102026004E002684FF6FE731A4064
:1007A0000260704710B50022026847F6F0739A4362
:1007B0000C6A8B6823430C6923434C6923438C697F
:1007C0002343CC6923434C6A23438C6A23431A4353
:1007D0000260CB6843600B6883604B68C36010BDE8
:1007E00070472DE9F0410246002500260020002335
:1007F0000024002791F803C00CF00F0591F803C006
:100800000CF0100CBCF1000F03D091F802C04CEAC0
:10081000050591F800C0BCF1000F31D0146800202C
:100820002BE04FF0010C0CFA00F3B1F800C00CEA19
:1008300003069E4220D183004FF00F0C0CFA03F701
:10084000BC4305FA03FC4CEA040491F803C0BCF174
:10085000280F06D14FF0010C0CFA00FCC2F814C0AE
:100860000AE091F803C0BCF1480F05D14FF0010C2C
:100870000CFA00FCC2F810C0401C0828D1D3146048
:10088000B1F800C0BCF1FF0F34DD546800202EE049
:1008900000F1080C4FF0010808FA0CF3B1F800C0A1
:1008A0000CEA03069E4221D183004FF00F0C0CFA94
:1008B00003F7BC4305FA03FC4CEA040491F803C0B7
:1008C000BCF1280F05D100F1080C08FA0CF8C2F8A9
:1008D000148091F803C0BCF1480F07D100F1080C57
:1008E0004FF0010808FA0CF8C2F81080401C0828E4
:1008F000CED35460BDE8F0810161704700BFFEE7D0
:1009000008B50121042000F041F810208DF8030003
:100910000420ADF8000003208DF802006946044869
:10092000FFF75FFF04210248FFF7E6FF08BD000064
:100930000008014000BFFEE7704700000249014384
:10094000024A1160704700000000FA050CED00E05B
:100950007047000001460020034A506820F44040E0
:1009600008435060704700000010024029B1064A59
:1009700052690243044B5A6104E0034A52698243BC
:10098000014B5A61704700000010024029B1064A2D
:1009900092690243044B9A6104E0034A92698243DC
:1009A000014B9A61704700000010024030B50021F1
:1009B0000022002400232D4D6D6805F00C0121B1AB
:1009C000042905D0082923D105E0294D056022E03E
:1009D000274D05601FE0254D6D6805F47012234D0D
:1009E0006D6805F48034022505EB92421CB9214D57
:1009F000554305600BE01D4D6D6805F400351DB1D4
:100A00001C4D5543056002E0194D5543056002E059
:100A1000174D056000BF00BF144D6D6805F0F00173
:100A20000909154D6B5C0568DD4045600F4D6D682B
:100A300005F4E061090A104D6B5C4568DD40856096
:100A40000A4D6D6805F46051C90A0B4D6B5C456831
:100A5000DD40C560054D6D6805F44041890B074DCB
:100A60006B5CC568B5FBF3F5056130BD0010024055
:100A700000127A0000093D0024000020340000200C
:100A8000704710B500F002F810BD00000CB5002052
:100A9000019000903348006840F48030314908608C
:100AA00000BF3048006800F4003000900198401CFE
:100AB0000190009818B90198B0F5A06FF1D12948BC
:100AC000006800F4003010B10120009001E0002027
:100AD00000900098012843D12348006840F010009E
:100AE000214908600846006820F0030008600846B5
:100AF000006840F0020008601A48406819494860E0
:100B00000846406848600846406840F48060486095
:100B10000846406820F47C1048600846406840F46D
:100B2000E81048600846006840F08070086000BF28
:100B30000C48006800F000700028F9D009484068AF
:100B400020F00300074948600846406840F0020072
:100B5000486000BF0348406800F00C000828F9D145
:100B60000CBD00000010024000200240042808D103
:100B70004FF0E021096941F004014FF0E0221161DA
:100B800007E04FF0E021096921F004014FF0E02275
:100B9000116170477047000010B51348006840F0BD
:100BA00001001149086008464068104908400E4994
:100BB0004860084600680E4908400B49086008462E
:100BC000006820F4802008600846406820F4FE0099
:100BD00048604FF41F008860FFF753FF4FF000603C
:100BE0000449086010BD0000001002400000FFF83A
:100BF000FFFFF6FE08ED00E000B585B0012144F2EC
:100C00000400FFF7C3FE4FF40070ADF81000182089
:100C10008DF8130003208DF8120004A91348FFF784
:100C2000E0FD4FF48060ADF8100004208DF8130053
:100C300004A90E48FFF7D5FD4FF416500090002090
:100C4000ADF80400ADF80600ADF80800ADF80C00F2
:100C50000C20ADF80A006946054800F025F801218E
:100C6000034800F007F805B000BD0000000801408F
:100C70000038014021B1828942F40052828104E0AF
:100C800082894DF6FF731A40828170470246002028
:100C9000B1F5007F00D100BF13880B400BB10120DC
:100CA00000E00020704700002DE9F04786B00546BF
:100CB0000E460024A24600BFA1460027B08900B11D
:100CC00000BF2F462C8A4CF6FF700440F088044386
:100CD0002C82AC894EF6F3100440B0883189084369
:100CE000718908430443AC81AC8A4FF6FF4004404D
:100CF000B0890443AC8201A8FFF758FE1F48874221
:100D000002D1DDF810A001E0DDF80CA0A88900F404
:100D1000004040B10AEBCA0000EB0A1031684900FC
:100D2000B0FBF1F807E00AEBCA0000EB0A103168EB
:100D30008900B0FBF1F86420B8FBF0F00401200951
:100D4000642101FB1089A88900F4004040B13220E1
:100D500000EBC900B0FBF1F000F00700044308E02D
:100D6000322000EB09106421B0FBF1F000F00F001D
:100D700004432C8106B0BDE8F08700000038014034
:100D8000C1F308028280704700BFFEE7014A0249B2
:100D900000F013B86D0E00083800002002E008C80B
:100DA000121F08C1002AFAD170477047002001E0E5
:100DB00001C1121F002AFBD170472DE9F0411646F0
:100DC0000F460446002503E03946B047641C6D1CFD
:100DD00020780028F8D12846BDE8F08110B56FF0E2
:100DE0000400FFF7C3FE0A4800680A49B0FBF1F0AF
:100DF000094908700846007800EB4001C1EBC010BB
:100E00004FF6FF7101EAC0000449088010BD0000E0
:100E10001000002000127A00080000200A000020C4
:100E20000146114A12884A434FF0E0235A610022DA
:100E30009A611A46126942F001021A6100BF4FF02E
:100E4000E022106900F001021AB100F48032002A99
:100E5000F5D04FF0E022126922F001024FF0E023BA
:100E60001A6100229A6170470A00002070B504469A
:100E70000D46E1B20548FFF783FF00BF402103485C
:100E8000FFF704FF0028F9D0204670BD003801406C
:100E90004FF4C060FFF752FDFFF7A0FFFFF730FDF2
:100EA000FFF7AAFEFFF73EFB34E01B490888FFF777
:100EB0003EFA8246FFF740FA06464FF06632174B7D
:100EC000FFF754F904460022154BFFF7C1F980469D
:100ED000FFF745FA134908600F494888FFF727FADA
:100EE0008246FFF729FA80464FF066320B4BFFF738
:100EF0003DF9064600220A4BFFF7AAF90446FFF720
:100F00002EFA094908604FF4FA60FFF789FF07A03D
:100F1000FFF73CFFC9E700000C00002066660A40AE
:100F20000000B04000000020040000207B227A680E
:100F3000756F223A322E302C202274656D706572E6
:100F40006174757265223A332C224E4833223A344A
:100F50002C224F32223A342C227048223A312E3041
:100F60007D000000840F0008000000203C0000000D
:100F70009C0D0008C00F00083C0000200404000085
:100F8000AC0D0008000000000000000000000000A0
:100F90000000000000A24A04000000000000000061
:100FA000010203040607080900000000010203040F
:100FB00001020304060708090204060800000000F5
:0400000508000131BD
:00000001FF
