:020000040800F2
:1000000058270020490100089D03000861030008EB
:100010009903000891010008AD07000800000000E6
:10002000000000000000000000000000B50400080F
:1000300041020008000000009F030008C9050008F5
:100040006301000863010008630100086301000800
:1000500063010008630100086301000863010008F0
:1000600063010008630100086301000863010008E0
:1000700063010008630100086301000863010008D0
:1000800063010008630100086301000863010008C0
:1000900063010008630100086301000863010008B0
:1000A00063010008630100086301000863010008A0
:1000B0006301000863010008630100086301000890
:1000C0006301000863010008630100086301000880
:1000D0006301000863010008630100086301000870
:1000E0006301000863010008630100086301000860
:1000F0006301000863010008630100086301000850
:10010000630100086301000863010008630100083F
:10011000630100086301000863010008630100082F
:10012000630100086301000863010008630100081F
:10013000DFF810D000F01AF8004800471508000852
:10014000AFF3008058270020064880470648004744
:10015000FEE7FEE7FEE7FEE7FEE7FEE7FEE7FEE777
:10016000FEE7FEE7CD05000831010008064C074D0B
:1001700006E0E06840F0010394E807009847103477
:10018000AC42F6D3FFF7D8FF5C0800087C080008F3
:1001900000BFFEE721B1026842F00102026004E004
:1001A00002684FF6FE731A400260704700B58BB0CC
:1001B0000121084600F0F4F80F4800900F48019024
:1001C0001020029042F228300390002004908020FA
:1001D000059000200690079008904FF480500990F9
:1001E00000200A906946064800F00CF801210448F6
:1001F000FFF7D0FF0BB000BD043801402C000020F9
:100200004400024010B50022026847F6F0739A439A
:100210000C6A8B6823430C6923434C6923438C6924
:100220002343CC6923434C6A23438C6A23431A43F8
:100230000260CB6843600B6883604B68C36010BD8D
:1002400070472DE9F04102460025002600200023DA
:100250000024002791F803C00CF00F0591F803C0AB
:100260000CF0100CBCF1000F03D091F802C04CEA66
:10027000050591F800C0BCF1000F31D014680020D2
:100280002BE04FF0010C0CFA00F3B1F800C00CEABF
:1002900003069E4220D183004FF00F0C0CFA03F7A7
:1002A000BC4305FA03FC4CEA040491F803C0BCF11A
:1002B000280F06D14FF0010C0CFA00FCC2F814C054
:1002C0000AE091F803C0BCF1480F05D14FF0010CD2
:1002D0000CFA00FCC2F810C0401C0828D1D31460EE
:1002E000B1F800C0BCF1FF0F34DD546800202EE0EF
:1002F00000F1080C4FF0010808FA0CF3B1F800C047
:100300000CEA03069E4221D183004FF00F0C0CFA39
:1003100003F7BC4305FA03FC4CEA040491F803C05C
:10032000BCF1280F05D100F1080C08FA0CF8C2F84E
:10033000148091F803C0BCF1480F07D100F1080CFC
:100340004FF0010808FA0CF8C2F81080401C082889
:10035000CED35460BDE8F0814161704701617047C0
:1003600000BFFEE708B50121042000F029F81020A5
:100370008DF803000420ADF8000003208DF8020082
:1003800069460448FFF75DFF04210248FFF7E6FFD6
:1003900008BD00000008014000BFFEE7704770473D
:1003A00029B1064A52690243044B5A6104E0034AE8
:1003B00052698243014B5A617047000000100240AD
:1003C00029B1064A92690243044B9A6104E0034A48
:1003D00092698243014B9A6170470000001002400D
:1003E00030B500210022002400232D4D6D6805F05A
:1003F0000C0121B1042905D0082923D105E0294D9C
:10040000056022E0274D05601FE0254D6D6805F46D
:100410007012234D6D6805F48034022505EB92427D
:100420001CB9214D554305600BE01D4D6D6805F469
:1004300000351DB11C4D5543056002E0194D554373
:10044000056002E0174D056000BF00BF144D6D68E8
:1004500005F0F0010909154D6B5C0568DD4045604C
:100460000F4D6D6805F4E061090A104D6B5C45683D
:10047000DD4085600A4D6D6805F46051C90A0B4D79
:100480006B5C4568DD40C560054D6D6805F4404115
:10049000890B074D6B5CC568B5FBF3F5056130BD95
:1004A0000010024000127A0000093D0018000020F0
:1004B00028000020704710B500F002F810BD0000C1
:1004C0000CB50020019000903348006840F4803063
:1004D0003149086000BF3048006800F400300090E7
:1004E0000198401C0190009818B90198B0F5A06FD0
:1004F000F1D12948006800F4003010B101200090CB
:1005000001E0002000900098012843D123480068B2
:1005100040F01000214908600846006820F0030000
:1005200008600846006840F0020008601A48406809
:10053000194948600846406848600846406840F4E9
:10054000806048600846406820F47C104860084697
:10055000406840F4E81048600846006840F0807049
:10056000086000BF0C48006800F000700028F9D057
:100570000948406820F00300074948600846406881
:1005800040F00200486000BF0348406800F00C00E3
:100590000828F9D10CBD00000010024000200240E4
:1005A000042808D14FF0E021096941F004014FF01F
:1005B000E022116107E04FF0E021096921F0040118
:1005C0004FF0E022116170477047000010B51348EA
:1005D000006840F001001149086008464068104971
:1005E00008400E494860084600680E4908400B491B
:1005F00008600846006820F48020086008464068CB
:1006000020F4FE0048604FF41F008860FFF753FF9E
:100610004FF000600449086010BD00000010024067
:100620000000FFF8FFFFF6FE08ED00E000B585B022
:10063000012144F20400FFF7C3FE4FF40070ADF84F
:10064000100018208DF8130003208DF8120004A963
:100650001348FFF7F6FD4FF48060ADF8100004205A
:100660008DF8130004A90E48FFF7EBFD4FF4E130BD
:1006700000900020ADF80400ADF80600ADF80800C9
:10068000ADF80C000C20ADF80A006946054800F0F2
:1006900021F80121034800F007F805B000BD000073
:1006A000000801400038014021B1828942F4005223
:1006B000828104E082894DF6FF731A40828170477F
:1006C0001AB1838A0B43838202E0838A8B4383823D
:1006D000704700002DE9F04786B005460E4600241D
:1006E000A24600BFA1460027B08900B100BF2F4637
:1006F0002C8A4CF6FF700440F08804432C82AC89AD
:100700004EF6F3100440B0883189084371890843DC
:100710000443AC81AC8A4FF6FF400440B0890443E7
:10072000AC8201A8FFF75CFE1F48874202D1DDF8CA
:1007300010A001E0DDF80CA0A88900F4004040B151
:100740000AEBCA0000EB0A1031684900B0FBF1F86F
:1007500007E00AEBCA0000EB0A1031688900B0FB21
:10076000F1F86420B8FBF0F004012009642101FBDA
:100770001089A88900F4004040B1322000EBC90084
:10078000B0FBF1F000F00700044308E0322000EB7A
:1007900009106421B0FBF1F000F00F0004432C813C
:1007A00006B0BDE8F08700000038014000BFFEE75A
:1007B00002E008C8121F08C1002AFAD1704770472A
:1007C000002001E001C1121F002AFBD17047000088
:1007D00010B56FF00400FFF7E3FE0A4800680A490D
:1007E000B0FBF1F0094908700846007800EB4001C1
:1007F000C1EBC0104FF6FF7101EAC0000449088048
:1008000010BD00000400002000127A00000000204B
:10081000020000200024FFF7DBFFFFF7A3FDFFF736
:1008200005FFFFF7C3FC00BF03E0FF2008490855A0
:10083000641C42F228308442F7D30122802105480B
:10084000FFF73EFF04210448FFF786FD00BFFEE7E7
:100850002C00002000380140000801407C080008FE
:10086000000000202C000000B0070008A8080008C5
:100870002C0000202C270000C0070008000000000A
:1008800000A24A040000000000000000010203046E
:100890000607080900000000010203040102030426
:0808A00006070809020406081E
:0400000508000131BD
:00000001FF
